:100000000C9462000C948A000C948A000C948A0070
:100010000C948A000C948A000C948A000C948A0038
:100020000C948A000C948A000C948A000C948A0028
:100030000C948A000C948A000C948A000C948A0018
:100040000C9434050C948A000C94A4050C947E0541
:100050000C948A000C948A000C948A000C948A00F8
:100060000C948A000C948A000000000024002700F1
:100070002A0000000000250028002B0000000000DE
:1000800023002600290004040404040404040202DA
:100090000202020203030303030301020408102007
:1000A0004080010204081020010204081020000012
:1000B0000008000201000003040700000000000027
:1000C0000000D60511241FBECFEFD8E0DEBFCDBFA4
:1000D00022E0A4EAB1E001C01D92A635B207E1F723
:1000E00011E0A0E0B1E0ECE0F9E102C005900D9272
:1000F000A43AB107D9F710E0C2E6D0E004C02197D6
:10010000FE010E94690AC136D107C9F70E94130691
:100110000C94840C0C940000833081F028F481301E
:1001200099F08230A9F008958730A9F08830C9F09D
:100130008430B1F4809180008F7D03C08091800075
:100140008F7780938000089584B58F7784BD08955C
:1001500084B58F7DFBCF8091B0008F778093B00006
:1001600008958091B0008F7DF9CFCF93DF93282F32
:1001700030E0F901E255FF4F8491F901E656FF4F57
:10018000D491F901EA57FF4FC491CC23A1F081111A
:100190000E948C00EC2FF0E0EE0FFF1FE458FF4FA1
:1001A000A591B491EC91ED2381E090E009F480E019
:1001B000DF91CF91089580E090E0FACF1F93CF9325
:1001C000DF93282F30E0F901E255FF4F8491F901C8
:1001D000E656FF4FD491F901EA57FF4FC491CC2363
:1001E000A9F0162F81110E948C00EC2FF0E0EE0F89
:1001F000FF1FEE58FF4FA591B4918FB7F894EC9183
:10020000111108C0D095DE23DC938FBFDF91CF9111
:100210001F910895DE2BF8CFCF93DF9390E0FC0180
:10022000E656FF4F24918A579F4FFC018491882303
:10023000D1F090E0880F991FFC01E859FF4FA5917C
:10024000B491FC01EE58FF4FC591D49161110EC0DD
:100250009FB7F8948C91E22FE0958E238C932881A0
:10026000E223E8839FBFDF91CF9108958FB7F89481
:10027000EC91E22BEC938FBFF6CFAF92BF92CF926F
:10028000DF92EF92FF920F931F93CF93DF936C0156
:100290007B018B01040F151FEB015E01AE18BF0837
:1002A000C017D10759F06991D601ED91FC910190E9
:1002B000F081E02DC6010995892B79F7C501DF9101
:1002C000CF911F910F91FF90EF90DF90CF90BF9053
:1002D000AF900895FC0144815581608171818FEA5E
:1002E00091E00C943D01FC01538D448D252F30E0AD
:1002F000842F90E0821B930B541710F0CF96089533
:1003000001970895FC01918D828D981761F0A28D5F
:10031000AE0FBF2FB11D5D968C91928D9F5F9F7325
:10032000928F90E008958FEF9FEF08952FB7F89484
:100330008091AB019091AC01A091AD01B091AE0163
:100340002FBF8093B7019093B801A093B901B093E8
:10035000BA018FEA91E00E94820197FF26C02FB771
:10036000F8948091AB019091AC01A091AD01B09156
:10037000AE012FBF4091B7015091B8016091B90112
:100380007091BA01841B950BA60BB70B4091B3017A
:100390005091B4016091B5017091B6018417950731
:1003A000A607B707B0F28FEF9FEF0895FC01918D7C
:1003B000828D981731F0828DE80FF11D858D90E0C8
:1003C00008958FEF9FEF0895FC01918D228D892F65
:1003D00090E0805C9F4F821B91098F73992708954D
:1003E0008FEA91E00E94E40121E0892B09F420E0EA
:1003F000822F089580E090E0892B29F00E94F0017F
:1004000081110C9400000895FC01A48DA80FB92F50
:10041000B11DA35ABF4F2C91848D90E001968F732C
:100420009927848FA689B7892C93A089B1898C914B
:10043000837080648C93938D848D981306C002889A
:10044000F389E02D80818F7D80830895EF92FF9264
:100450000F931F93CF93DF93EC0181E0888F9B8DE7
:100460008C8D98131AC0E889F989808185FF15C0A1
:100470009FB7F894EE89FF896083E889F9898081C4
:100480008370806480839FBF81E090E0DF91CF9193
:100490001F910F91FF90EF900895F62E0B8D10E0B5
:1004A0000F5F1F4F0F731127E02E8C8D8E110CC024
:1004B0000FB607FCFACFE889F989808185FFF5CF6F
:1004C000CE010E940402F1CFEB8DEC0FFD2FF11D48
:1004D000E35AFF4FF0829FB7F8940B8FEA89FB89AC
:1004E00080818062CFCFCF93DF93EC01888D88230A
:1004F000B9F0AA89BB89E889F9898C9185FD03C087
:10050000808186FD0DC00FB607FCF7CF8C9185FF6B
:10051000F2CF808185FFEDCFCE010E940402E9CFAA
:10052000DF91CF9108954F925F926F927F928F9259
:100530009F92AF92BF92CF92DF92EF92FF920F9372
:100540001F93CF93DF936091A4017091A501C09197
:100550004E02D0914F0250E040E0461757070CF092
:100560007CC08C809D8030E020E0281539050CF09F
:1005700077C0E884F984F901EE0FFF1FEE0DFF1D2F
:100580000190F081E02D8E179F0719F02F5F3F4FEC
:10059000ECCF2C016A807B80A0904C02B0904D0281
:1005A000D12CC12C10E000E0C614D7040CF5EE816C
:1005B000FF81C601880F991FE80FF91F2081318143
:1005C000F901EE0FFF1FEA0DFB1D808191818F3F26
:1005D000980731F4C9010E9493028F3F980761F197
:1005E000000F111F080F191FFFEFCF1ADF0ADCCF12
:1005F000000F111F8A859B85080F191FF801808144
:100600009181A40141505109F70130E020E061914E
:1006100071914616570639F02F5F3F4F281539055F
:10062000B4F32FEF3FEF421B530B02C09595879514
:100630004A95E2F781709927DF91CF911F910F9131
:10064000FF90EF90DF90CF90BF90AF909F908F90F2
:100650007F906F905F904F9008958FEF9FEFECCF5A
:100660004F5F5F4F2C9679CFFC0101900020E9F796
:100670003197AF01481B590BBC018FEA91E00C94F4
:100680003D018CE191E00C943403CF93DF930E9401
:100690006A01EC010E9441038C0F9D1FDF91CF91F5
:1006A0000895CF93DF930E943403EC010E9441032D
:1006B0008C0F9D1FDF91CF910895CF93DF93EC01B5
:1006C00088819981009711F00E940B0B1982188282
:1006D0001D821C821B821A82DF91CF910895FC013A
:1006E00080819181009711F00C940B0B08950F936A
:1006F0001F93CF93DF93EC0188819981009759F084
:100700002A813B812617370730F081E0DF91CF91B6
:100710001F910F9108958B016F5F7F4F0E94940B83
:10072000009759F0998388831B830A832C813D812C
:10073000232B59F7FC011082E8CF80E0E7CFEF923E
:10074000FF920F931F93CF93DF936115710541F4CF
:1007500080E0DF91CF911F910F91FF90EF9008956E
:1007600041155105B1F07B01EC010C811D81040F95
:10077000151FB8010E947703882351F3288139811E
:100780008C819D81B701820F931F0E947D0C1D8378
:100790000C8381E0DECFCF93DF93EC01FB0101906E
:1007A0000020E9F73197AF01461B570B0E949F03CA
:1007B000811103C0CE010E945D03CE01DF91CF9174
:1007C0000895EF92FF920F931F93CF93DF93EC0165
:1007D0007B018A01BA010E94770381110BC0CE010F
:1007E0000E945D03CE01DF91CF911F910F91FF9089
:1007F000EF9008951D830C83B701888199810E9431
:100800007D0CF0CFEF92FF920F931F93CF93DF9366
:10081000CDB7DEB762970FB6F894DEBF0FBECDBF7F
:100820008C01CB01F8011182108213821282158291
:1008300014824AE09E012F5F3F4F7901B9010E9467
:10084000F509F70101900020E9F73197AF014E1942
:100850005F09B701C8010E94E10362960FB6F894E0
:10086000DEBF0FBECDBFDF91CF911F910F91FF90E3
:10087000EF900895CF93DF93EC01FB018617970764
:1008800049F0608171816115710541F044815581A4
:100890000E94E103CE01DF91CF9108950E945D0394
:1008A000F9CFCF92DF92EF92FF920F931F93CF93E6
:1008B000DF93CDB7DEB762970FB6F894DEBF0FBEF9
:1008C000CDBF80914C0290914D020E940B0BE090A5
:1008D0000001F0900101C7010596880F991F0E9441
:1008E0006F0A90934D0280934C028C010C5F1F4F56
:1008F000F80182E090E02FEF3FEFE816F90624F0D0
:10090000219331930196F9CF52E0F52E8F2D0E945D
:10091000B500F801819391938F01F394FAE0FF12EF
:10092000F5CF8FE191E00E945103C0900001D0907B
:10093000010100914C0210914D020C5E1F4F4AE0E4
:10094000E42EF12CCE14DF048CF0F801808191812B
:100950008F3F980719F4C7010E949302F801819311
:1009600091938F01FFEFEF1AFF0AECCF02E010E046
:100970008091000190910101801791070CF448C00B
:10098000E0914C02F0914D02C801880F991FE80FC9
:10099000F91F608171816F3F7607B9F1CE010D9625
:1009A0000E940204B801CE0101960E94020418863A
:1009B0001F821A8619861C861B86BE016F5F7F4FB9
:1009C000CE0107960E943A046BE671E0CE010796CD
:1009D0000E94CB037C0149895A896D857E850E94DE
:1009E0009F03811103C0C7010E945D03C7010E94DC
:1009F0004503CE0107960E946F03CE0101960E9427
:100A00006F03CE010D960E946F030F5F1F4FB0CF93
:100A100085E391E00E9451030AE010E0E0914C026E
:100A2000F0914D02C801880F991FE80FF91F8081CE
:100A3000918161E0019709F060E0802F0E94DE0063
:100A40000F5F1F4F0E30110549F762960FB6F894ED
:100A5000DEBF0FBECDBFDF91CF911F910F91FF90F1
:100A6000EF90DF90CF9008951F920F920FB60F92E4
:100A700011242F933F938F939F93AF93BF938091B4
:100A8000AB019091AC01A091AD01B091AE0130915C
:100A9000AA0123E0230F2D3758F50196A11DB11DA2
:100AA0002093AA018093AB019093AC01A093AD0178
:100AB000B093AE018091A6019091A701A091A801E9
:100AC000B091A9010196A11DB11D8093A60190933B
:100AD000A701A093A801B093A901BF91AF919F91E5
:100AE0008F913F912F910F900FBE0F901F901895EF
:100AF00026E8230F0296A11DB11DD2CF1F920F929F
:100B00000FB60F9211242F933F934F935F936F93E0
:100B10007F938F939F93AF93BF93EF93FF938FEA4E
:100B200091E00E940402FF91EF91BF91AF919F91DC
:100B30008F917F916F915F914F913F912F910F9086
:100B40000FBE0F901F9018951F920F920FB60F9225
:100B500011242F938F939F93EF93FF93E091BF0105
:100B6000F091C0018081E091C501F091C60182FD44
:100B70001BC090818091C8018F5F8F732091C90144
:100B8000821741F0E091C801F0E0E155FE4F958FEA
:100B90008093C801FF91EF919F918F912F910F90BA
:100BA0000FBE0F901F9018958081F4CFEFEAF1E00F
:100BB0001382128288EE93E0A0E0B0E084839583F4
:100BC000A683B7838EE091E09183808385EC90E0EB
:100BD0009587848784EC90E09787868780EC90E007
:100BE000918B808B81EC90E0938B828B82EC90E0F8
:100BF000958B848B86EC90E0978B868B118E128E72
:100C0000138E148E8CE090E00E946F0A90934F0236
:100C100080934E0284E290E00E946F0A90934D020E
:100C200080934C020895CF93DF93CDB7DEB76297E0
:100C30000FB6F894DEBF0FBECDBF789484B5826046
:100C400084BD84B5816084BD85B5826085BD85B570
:100C5000816085BD80916E00816080936E001092EE
:100C60008100809181008260809381008091810069
:100C700081608093810080918000816080938000FA
:100C80008091B10084608093B1008091B000816058
:100C90008093B00080917A00846080937A00809184
:100CA0007A00826080937A0080917A0081608093DC
:100CB0007A0080917A00806880937A001092C10057
:100CC00060E082E00E940C0160E083E00E940C0181
:100CD00060E084E00E940C0160E085E00E940C016D
:100CE00060E086E00E940C0160E087E00E940C0159
:100CF00060E088E00E940C0160E089E00E940C0145
:100D000061E08AE00E940C0161E08BE00E940C012E
:100D100061E08CE00E940C0161E08DE00E940C011A
:100D2000E091BF01F091C00182E08083E091BB01BE
:100D3000F091BC011082E091BD01F091BE018FECF9
:100D400080831092C701E091C301F091C40186E055
:100D50008083E091C101F091C20180818061808334
:100D6000E091C101F091C201808188608083E091AF
:100D7000C101F091C201808180688083E091C1014E
:100D8000F091C20180818F7D8083E0914C02F091CF
:100D90004D028FEF9FEF95838483BCE05B2E02E0D2
:100DA00010E0802F0E94B500E0914C02F0914D02BE
:100DB0009801220F331FE20FF31F20813181821728
:100DC000930741F10E9451048FEA91E00E94E401EF
:100DD000181619060CF068C01E861D86188A1F8614
:100DE0001A8A198A50E040E06EE171E0CE010D965A
:100DF0000E94E1030E94960197FD12C089831A8226
:100E000041E050E0BE016F5F7F4FCE010D960E9422
:100E10009F03F0CF0F5F1F4F0A30110511F6D4CF9B
:100E200089899A89892B09F44CC06EE371E08D851C
:100E30009E850E94740C892B09F043C080914E025C
:100E400090914F020E940B0B8CE090E00E946F0A81
:100E500090934F0280934E021092A5011092A4012C
:100E600021E030E030930301209302018DE090E017
:100E7000909301018093000180914C0290914D026A
:100E80000E940B0B84E290E00E946F0A90934D0247
:100E900080934C0284E491E00E945103CE010D96B0
:100EA0000E946F030E945104E0E0F0E0EF2B09F490
:100EB00076CF0E94F001882309F46FCF0E940000D2
:100EC0006CCFE090A401F090A50180910201909177
:100ED0000301E816F9067CF1880F991F909303012E
:100EE00080930201DC015A9EC0015B9E900D11248B
:100EF0000E946F0A8C019C0150E040E080914E02FC
:100F000090914F024E155F0584F4F901E01BF10B3F
:100F1000E80FF91F8CE0D90101900D928A95E1F755
:100F20004F5F5F4F245F3F4FE9CF0E940B0B109341
:100F30004F0200934E028D859E850E94510C4C01FC
:100F400064E571E00E94C9090E94AB097C0164E577
:100F500071E090E080E00E94C9090E94AB096C0139
:100F600064E571E090E080E00E94C9090E94AB094D
:100F70003C0164E571E090E080E00E94C9098C01C9
:100F8000C601880F991F0E946F0A5C01C301880F78
:100F9000991F0E946F0A1C0182E090E00C2C02C095
:100FA000880F991F0A94E2F70E946F0A4091A401EA
:100FB0005091A501549E9001559E300D1124E09151
:100FC0004E02F0914F02E20FF31FF182E082D382D2
:100FD000C28275826482B782A68231862086938718
:100FE0008287F12CE12CEC14FD04A4F5C8010E94C9
:100FF000AB095C0180910001909101018A159B056C
:101000000CF4C501909301018093000164E571E047
:1010100090E080E00E94C9098C012091A4013091E8
:10102000A501529EC001539E900D1124A0914E0225
:10103000B0914F02A80FB91FC701880F991F1696CC
:10104000ED91FC91E80FF91FB182A082BFEFEB1A7E
:10105000FB0AC9CFF12CE12CE614F704A4F5C80172
:101060000E94AB096C0180910001909101018C15E7
:101070009D050CF4C601909301018093000164E585
:1010800071E090E080E00E94C9098C012091A401E8
:101090003091A501529EC001539E900D1124A09144
:1010A0004E02B0914F02A80FB91FC701880F991FB8
:1010B0001896ED91FC91E80FF91FD182C082EFEFF5
:1010C000EE1AFE0AC9CFD12CC12C0115110521F150
:1010D0002091A4013091A501529EC001539E900D14
:1010E0001124E0914E02F0914F02E80FF91FE284C3
:1010F000F384EC0CFD1CC8010E94AB09D7018D9351
:101100009C9364E571E090E080E00E94C9098C0145
:10111000B2E0CB0ED11CD9CF86E591E00E945103FD
:101120002091A4013091A501529EC001539E900DC3
:10113000112400914E0210914F02080F191F87E6EB
:1011400091E00E943403F80160817181CE01019623
:101150000E940204CE0101960E944503CE01019631
:101160000E946F038EE691E00E943403D80112962C
:101170006D917C91CE0101960E940204CE010196F0
:101180000E944503CE0101960E946F038AE791E019
:101190000E943403F80164817581CE0101960E949A
:1011A0000204CE0101960E944503CE0101960E94E1
:1011B0006F0387E891E00E943403F12CE12CD80101
:1011C00012968D919C911397E816F9067CF5C7014C
:1011D000880F991F1696ED91FC91E80FF91F608119
:1011E0007181CE0107960E9402041A8219821C8224
:1011F0001B821E821D82BE01695F7F4FCE01019658
:101200000E943A046CE671E0CE0101960E94CB0385
:101210000E946A01CE0101960E946F03CE010796DB
:101220000E946F03BFEFEB1AFB0AC9CF0E94410374
:1012300080E991E00E943403F12CE12CF8018481D3
:101240009581E816F9067CF5C701880F991F00847F
:10125000F185E02DE80FF91F60817181CE010796BD
:101260000E9402041A8219821C821B821E821D8225
:10127000BE01695F7F4FCE0101960E943A046CE681
:1012800071E0CE0101960E94CB030E946A01CE015B
:1012900001960E946F03CE0107960E946F03FFEF35
:1012A000EF1AFF0ACBCF0E9441038AE991E00E9426
:1012B0003403F12CE12C81E090E0D80112960C90DF
:1012C000129702C0880F991F0A94E2F7E816F906F0
:1012D0007CF5C701880F991F1A96ED91FC91E80FD4
:1012E000F91F60817181CE0107960E9402041A8263
:1012F00019821C821B821E821D82BE01695F7F4F84
:10130000CE0101960E943A046CE671E0CE0101968E
:101310000E94CB030E946A01CE0101960E946F03D6
:10132000CE0107960E946F03BFEFEB1AFB0AC3CFF3
:101330000E94410385E391E00E945103C4010E9491
:101340000B0B8091A4019091A50101969093A501AA
:101350008093A401A3CDFC0188279927E8942191CB
:101360002032E9F3293010F02E30C8F32B3241F04F
:101370002D3239F4689404C00E94000A820F911D36
:10138000219120532A30C0F31EF4909581959F4FF0
:10139000089540E552E00E94CE090895FA01A19116
:1013A000B081009719F41097E1F0CD01DC01CD0177
:1013B0000D90002011F4C00113C0FB0121912223E4
:1013C00019F02015D9F7F3CFFB012191201519F45D
:1013D0001E92119606C02223C1F70D900020A1F79E
:1013E000D001FA01A193B0830895BB274A3031F4AC
:1013F000992322F4BDE2909581959F4F0C94090AA0
:101400007AE0979F902D879F802D910D112408954C
:10141000BB27FB015527AA27880F991FAA1FA417CE
:1014200010F0A41B83955051B9F7A05DAA3308F0C2
:10143000A95DA193009779F7B111B1931192CB01F6
:101440000C94220ADC01FC01672F71917723E1F7EC
:10145000329704C07C916D9370836291AE17BF0781
:10146000C8F308952F923F924F925F926F927F92AE
:101470008F929F92AF92BF92CF92DF92EF92FF92A4
:101480000F931F93CF93DF93CDB7DEB7CA1BDB0B50
:101490000FB6F894DEBF0FBECDBF09942A883988F5
:1014A00048885F846E847D848C849B84AA84B984FC
:1014B000C884DF80EE80FD800C811B81AA81B98108
:1014C000CE0FD11D0FB6F894DEBF0FBECDBFED011C
:1014D0000895EE0FFF1F0590F491E02D09940F93EE
:1014E0001F93CF93DF938230910510F482E090E058
:1014F000E0915402F091550230E020E0B0E0A0E02D
:10150000309799F42115310509F44AC0281B390B8D
:1015100024303105D8F58A819B816115710589F1E7
:10152000FB0193838283FE0111C0408151810281BE
:10153000138148175907E0F04817590799F4109795
:1015400061F012960C93129713961C933296CF016A
:10155000DF91CF911F910F91089500935402109342
:101560005502F4CF2115310551F04217530738F0D9
:10157000A901DB019A01BD01DF01F801C1CFEF0133
:10158000F9CF9093550280935402CDCFFE01E20F24
:10159000F31F819391932250310939832883D7CF48
:1015A0002091520230915302232B41F420910601E5
:1015B000309107013093530220935202209104018D
:1015C000309105012115310541F42DB73EB7409109
:1015D000080150910901241B350BE0915202F09152
:1015E0005302E217F307A0F42E1B3F0B281739070D
:1015F00078F0AC014E5F5F4F2417350748F04E0F6F
:101600005F1F5093530240935202819391939FCF57
:10161000F0E0E0E09CCFCF93DF930097E9F0FC018E
:10162000329713821282A0915402B0915502ED01BB
:1016300030E020E01097A1F420813181820F931FC8
:1016400020915202309153022817390709F061C0E6
:10165000F0935302E0935202DF91CF910895EA0193
:10166000CE17DF07E8F54A815B819E0141155105E0
:10167000B1F7E901FB83EA8349915991C40FD51F62
:10168000EC17FD0761F4808191810296840F951F0C
:10169000E90199838883828193819B838A83F0E027
:1016A000E0E012968D919C9113970097B9F52D91DA
:1016B0003C911197CD010296820F931F2091520207
:1016C000309153022817390739F6309751F51092A7
:1016D000550210925402B0935302A0935202BCCF11
:1016E000D383C28340815181840F951FC817D907C6
:1016F00061F44E5F5F4F88819981480F591F518374
:1017000040838A819B81938382832115310509F06F
:10171000B0CFF0935502E09354029ECFFD01DC015F
:10172000C0CF13821282D7CFB0E0A0E0EAE9FBE09D
:101730000C94340A8C01009751F4CB010E946F0A7B
:101740008C01C801CDB7DEB7E0E10C94500AFC0172
:10175000E60FF71F9C0122503109E217F30708F446
:101760009DC0D901CD91DC911197C617D70798F08C
:10177000C530D10530F3CE0104978617970708F3DB
:10178000C61BD70B2297C193D1936D937C93CF0146
:101790000E940B0BD6CF5B01AC1ABD0A4C018C0E1C
:1017A0009D1EA0915402B0915502512C412CF12C58
:1017B000E12C109731F580915202909153028815D7
:1017C000990509F05CC04616570608F058C080918C
:1017D000040190910501009741F48DB79EB74091A7
:1017E000080150910901841B950BE817F90708F0CF
:1017F00055C0F0935302E0935202F9017183608364
:10180000A0CF8D919C91119712966C901297139680
:101810007C901397A815B90559F56C0142E0C40EE8
:10182000D11CCA14DB0420F1AC014A195B09DA01AE
:101830001296159780F06282738251834083D9019A
:101840006D937C93E114F10471F0D7011396FC932E
:10185000EE93129776CF22968C0F9D1FF9019183FC
:101860008083F301EFCFF0935502E093540269CFE8
:101870004816590608F42C017D01D3019ACFCB01FB
:101880000E946F0A7C01009749F0AE01B8010E94E6
:101890006B0CC8010E940B0B870153CF10E000E0D6
:1018A00050CF0F931F93CF93DF938C01FC010190D6
:1018B0000020E9F7CF01801B910B0E946F0AEC0119
:1018C000009719F0B8010E947D0CCE01DF91CF91F5
:1018D0001F910F910895FB01DC0102C001900D9250
:1018E00041505040D8F70895FB01DC018D910190E3
:1018F00080190110D9F3990B0895FB01DC010190C7
:0C1900000D920020E1F70895F894FFCF4D
:10190C000D000100000056028000000000002602BD
:10191C003D0173017302E4018201D6010D0A0063DB
:10192C0069726375697420696E666F726D61746932
:10193C006F6E3A20002D2D2D2D2D2D2D2D00636C2D
:10194C00656172005461626C657320636C656172D1
:10195C00656421002C006E6577207461626C6520D3
:10196C00616464656421006E616D653A2000696E86
:10197C007075745F636E743A20006F757470757453
:10198C005F636E743A2000696E707574733A200050
:10199C006F7574707574733A200076616C7565732D
:0419AC003A200000DD
:00000001FF
